:100000000C942A000C9452010C9447000C94470065
:100010000C9447000C9447000C9447000C94470044
:100020000C9447000C9447000C9447000C94210159
:100030000C9447000C9447000C9447000C94470024
:100040000C9447000C9447000C9447000C946901F1
:100050000C94470011241FBECFE5D4E0DEBFCDBF16
:1000600010E0A0E6B0E0EAE0F5E002C005900D92F5
:10007000A23AB107D9F720E0A2EAB0E001C01D9290
:10008000A83CB207E1F70E9488010C9483020C940B
:10009000000085BB89EF90E00197F1F700C00000F8
:1000A00080E288BB89EF90E00197F1F700C0000083
:1000B00018BA83EC99E00197F1F700C000000895A9
:1000C000CF93C82F807F0E94490089EF90E001976D
:1000D000F1F700C000008C2F8295807F0E944900BC
:1000E00089EF90E00197F1F700C00000CF910895EB
:1000F00082E00E94600089EF90E00197F1F700C074
:10010000000088E20E94600089EF90E00197F1F71B
:1001100000C000008CE00E94600089EF90E0019731
:10012000F1F700C0000086E00E94600089EF90E0D7
:100130000197F1F700C0000080E80E94600089EF9D
:1001400090E00197F1F700C00000089585BB80EAB8
:1001500088BB89EF90E00197F1F700C0000080E8CC
:1001600088BB83EC99E00197F1F700C00000089587
:10017000CF93C82F807F0E94A60089EF90E001975F
:10018000F1F700C000008C2F8295807F0E94A600AE
:1001900089EF90E00197F1F700C00000CF9108953A
:1001A0000F931F93CF93DF938C01C0E0D0E009C081
:1001B0000E94B8002196C031D10519F480EC0E944C
:1001C0006000F80181918F018111F2CFDF91CF9111
:1001D0001F910F910895615071098130910529F4A3
:1001E00080E8860F0E9460000895029721F480EC59
:1001F000860F0E946000089581E00E9460000895CB
:1002000083E389B910BC88E98AB986E880BD08957E
:100210005D9BFECF8CB90895CF93DF93EC0188816D
:10022000882331F021960E94080189918111FBCF2A
:100230008DE00E9408018AE00E940801DF91CF91C1
:1002400008951F920F920FB60F9211248F939F93D0
:10025000EF93FF938CB18D30E1F08A3061F4E0913F
:10026000A700F0E0E855FF4F10821092A70081E050
:100270008093A6000EC09091A7009F3150F4E091AA
:10028000A70091E09E0F9093A700F0E0E855FF4F84
:100290008083FF91EF919F918F910F900FBE0F90F0
:1002A0001F9018951F920F920FB60F9211248F93E3
:1002B0008091A200811107C08091A500811103C027
:1002C00081E08093A5008F910F900FBE0F901F903B
:1002D00018951F920F920FB60F9211248F939F9330
:1002E0008091A3009091A40001969093A400809324
:1002F000A3009F918F910F900FBE0F901F901895A4
:100300008DE083BF8EE48CBF89B7826089BF08957A
:10031000CF93DF93CDB7DEB7A0970FB6F894DEBFCB
:100320000FBECDBF8FEF84BB87BB0E9478000E94B9
:1003300000018A98929A85B7826085BF8BB78064E6
:100340008BBF0E948001789480E690E00E94D000EC
:1003500000E010E0DD24D3940F2EF8EAEF2EF0E059
:10036000FF2EF02D6894CC24C5F80F2EF3E0BF2E9D
:10037000F02D6894AA24A1F88091A500882339F172
:100380001092A500D092A2008091A3009091A400A9
:10039000F8941092A6001092A700F7012C2D11924C
:1003A0002A95E9F778948DE690E00E940C0180E7A9
:1003B00090E00E940C010E94FC0083E790E00E9404
:1003C000D000D092A2000091A3001091A4008091CF
:1003D000A600882309F44EC0F8941092A600B70135
:1003E000CE0101960E947C02F701108278946FE79B
:1003F00070E0CE0101960E947302892B29F484E8F3
:1004000090E00E940C0136C08091A2008130D1F4AE
:1004100089818435B9F40E94FC0087E890E00E944D
:10042000D00061E070E082E090E00E94EB00CE013D
:1004300002960E94D000A092A2000091A300109109
:10044000A40018C08091A2008130A1F465E870E09A
:10045000CE0101960E947302892B61F40E94FC0078
:100460008FE890E00E94D000B092A2000091A3001B
:100470001091A4008091A2008130A9F48091A30082
:100480009091A400801B910B8D3D954060F00E94DF
:10049000FC008FE890E00E94D000B092A200009192
:1004A000A3001091A4008091A200823029F08091D5
:1004B000A200833009F060CF8091A3009091A40046
:1004C000801B910B853F914008F456CF0E94FC00A1
:1004D00080E690E00E94D0008EE990E00E940C013E
:1004E0001092A20049CFFB01DC018D91019080198F
:1004F0000110D9F3990B0895FB01DC0101900D92D5
:0A0500000020E1F70895F894FFCF02
:10050A0053797374656D205265616479004E4700B2
:10051A00434B00436865636B696E672E2E2E00524B
:10052A00554F4B0043460057656C636F6D65005528
:10053A00736572206E6F7420666F756E6400524424
:02054A000000AF
:00000001FF
